:1000CC00202E083E203C203E001F24241F003F24ED
:1000DC00263D003F24263D0039093F0000007C40AE
:1000EC0078407C007C54540000F4000000000000B8
:0100FC000003
:10008F00753701C2B6C2B5E4F536E5362537240813
:10009F00F8E6FD7C00AF3612012B0536E536C3942A
:1000AF000840E70538E538D3941E40DBE4F5380502
:0D00BF0037E537D3942840CFE4F53780CAE9
:10014D00EF4E600F7D027CEFDCFEDDFCEF1F70F0EB
:03015D001E80ED14
:01016000227C
:0200FE00AD074C
:10010000E4FB74807E00A803088006CEA2E713CE2D
:1001100013D8F8FFEDF582EF558224FF92B4D2B6E2
:0A012000C2B60BBB08DCD2B5C2B5B5
:01012A0022B2
:10012B00AA07AF051200FEAF027480A80708800271
:10013B00C313D8FCF4F5807F017E0012014D75804E
:02014B00FF2291
:03000000020003F8
:0C000300787FE4F6D8FD75813802004AD1
:10000F0002008FE493A3F8E493A34003F68001F278
:10001F0008DFF48029E493A3F85407240CC8C333F2
:10002F00C4540F4420C8834004F456800146F6DFC1
:10003F00E4800B01020408102040809000CCE47E85
:10004F00019360BCA3FF543F30E509541FFEE493B6
:10005F00A360010ECF54C025E060A840B8E493A37D
:10006F00FAE493A3F8E493A3C8C582C8CAC583CAA8
:10007F00F0A3C8C582C8CAC583CADFE9DEE780BE60
:0100FD000002
:00000001FF
