:10017E001200F28F16E51660F77FE87E0312015328
:0C018E00E516FD7C007F0112008F80E46C
:10019A00EF4E600F7D027CEFDCFEDDFCEF1F70F09E
:0301AA001E80EDC7
:0101AD00222F
:1000F200E4F51420B1137F14FE12019A30B1FD7F92
:10010200147E0012019A75140120B2147F147E002D
:1001120012019A30B2FD7F147E0012019A75140109
:1001220020B3147F147E0012019A30B3FD7F147E37
:100132000012019A75140120B4147F147E0012017A
:100142009A30B4FD7F147E0012019A751401AF1427
:01015200228A
:0C01AE000A083F065B4F666D7D077F6FFF
:10008F00EF14B4080050549000A475F003A4C58376
:10009F0025F0C583730200BC0200C00200C4020039
:1000AF00C80200CC0200D40200DC0200E4D2A2801D
:1000BF000ED2A28012D2A28016D2A2801AC2A2D2CF
:1000CF00A3D2A48016C2A2D2A3C2A4800EC2A2C27F
:1000DF00A3D2A48006C2A2C2A3C2A474082DF8E6BC
:0300EF00F5802277
:0501BB00007FF7DFFEEC
:0101C000221C
:100153008E148F15E4F512F513E51525E0FFE5146C
:1001630033FEC3E5139FE5129E500FB295120000B4
:0B0173000513E51370E3051280DF2286
:03000000020003F8
:0C000300787FE4F6D8FD75811602004AF3
:10000F0002017EE493A3F8E493A34003F68001F288
:10001F0008DFF48029E493A3F85407240CC8C333F2
:10002F00C4540F4420C8834004F456800146F6DFC1
:10003F00E4800B01020408102040809001AEE47EA2
:10004F00019360BCA3FF543F30E509541FFEE493B6
:10005F00A360010ECF54C025E060A840B8E493A37D
:10006F00FAE493A3F8E493A3C8C582C8CAC583CAA8
:10007F00F0A3C8C582C8CAC583CADFE9DEE780BE60
:0101BA000044
:00000001FF
