:10017E001200F28F16E51660F77FE87E0312015328
:0C018E00E516FD7C007F0112008F80E46C
:1001B100EF4E600F7D027CEFDCFEDDFCEF1F70F087
:0301C1001E80EDB0
:0101C4002218
:1000F200E4F51420B1137F14FE1201B130B1FD7F7B
:10010200147E001201B175140120B2147F147E0016
:100112001201B130B2FD7F147E001201B1751401DB
:1001220020B3147F147E001201B130B3FD7F147E20
:10013200001201B175140120B4147F147E00120163
:10014200B130B4FD7F147E001201B1751401AF14F9
:01015200228A
:0C01C5000A083F065B4F666D7D077F6FE8
:10008F00EF14B4080050549000A475F003A4C58376
:10009F0025F0C583730200BC0200C00200C4020039
:1000AF00C80200CC0200D40200DC0200E4D2A2801D
:1000BF000ED2A28012D2A28016D2A2801AC2A2D2CF
:1000CF00A3D2A48016C2A2D2A3C2A4800EC2A2C27F
:1000DF00A3D2A48006C2A2C2A3C2A474082DF8E6BC
:0300EF00F5802277
:0501D200007FF7DFFED5
:0101D7002205
:100153008E148F15E4F512F513E51525E0FFE5146C
:1001630033FEC3E5139FE5129E500FB295120000B4
:0B0173000513E51370E3051280DF2286
:10019A005389F05389F1C28DD28C758CFC758A17FC
:0701AA00D2A9D2AFC2B922B5
:03000000020003F8
:0C000300787FE4F6D8FD75811602004AF3
:10000F0002017EE493A3F8E493A34003F68001F288
:10001F0008DFF48029E493A3F85407240CC8C333F2
:10002F00C4540F4420C8834004F456800146F6DFC1
:10003F00E4800B01020408102040809001C5E47E8B
:10004F00019360BCA3FF543F30E509541FFEE493B6
:10005F00A360010ECF54C025E060A840B8E493A37D
:10006F00FAE493A3F8E493A3C8C582C8CAC583CAA8
:10007F00F0A3C8C582C8CAC583CADFE9DEE780BE60
:0101D100002D
:00000001FF
