:02004800AD0702
:10004A00E4FB74807E00A803088006CEA2E713CEE4
:10005A0013D8F8FFEDF582EF558224FF92B4D2B699
:0A006A00C2B60BBB08DCD2B5C2B56C
:010074002269
:10007500AA07AF05120048AF027480A807088002DE
:10008500C313D8FCF4F5807F017E001200977580BC
:02009500FF2248
:10000300C2B6C2B57DFF7C00E4FF1200757D017CA2
:10001300007F011200757D427C007F021200757D16
:100023007E7C007F031200757D427C007F041200FA
:10003300757DFF7C007F061200757D017C007F07C4
:0500430012007580BFF2
:10009700EF4E600F7D027CEFDCFEDDFCEF1F70F0A2
:0300A7001E80EDCB
:0100AA002233
:030000000200AB50
:0C00AB00787FE4F6D8FD758107020003A1
:00000001FF
