:1005250020202D20202D20200020203A20203A2098
:020535002000A4
:10020D001204FD1205647BFF7A0579257D017F01BE
:10021D001204897BFF7A05792E7D017F02120489F4
:10022D0012000312028FE518FB7A00750C027D0196
:10023D007F011204CAE519FB7A00750C027D047F5B
:10024D00011204CAE51AFB7A00750C027D077F01C5
:10025D001204CAE51BFB7A00750C027D017F0212A8
:10026D0004CAE51CFB7A00750C027D047F021204A2
:10027D00CAE51DFB7A00750C027D077F021204CAC8
:02028D0080A14E
:06053700C2A58F80D2A7CF
:08053D007F027EEFDEFEDFFC11
:010545002293
:0A054600C2A6120537C2A702053D48
:1004AC00CFCDCFCECCCE12012C7C007D0A12012CEC
:0404BC00ED2430FFFC
:0A04C000D2A6120537C2A702053DBF
:1004E700AE07BE0104ED148006BE0209ED243F44A9
:0604F70080FF1205462201
:1004FD007F381205467F0C1205467F061205467F92
:04050D00010205469C
:0A055000AC031204E7AF040204C07C
:060489008B088A09890AB4
:10048F001204E7E4FDAB08AA09A90A8D827583005F
:0C049F001200EDFF60061204C00D80E9A1
:0104AB00222E
:0C0456007F0AEA24FFFDE434FFFC7E0076
:080462008E0D8F0E8C0F8D1022
:10046A007F017E00E4FBEBC39510E50F6480F8740E
:0E047A008098500AAC0DAD0E12011A0B80E8EE
:010488002251
:0404CA008A0A8B0B04
:1004CE001204E7AA0CEAD39400400D120456AC0AAB
:0804DE00AD0B1204AC1A80ED15
:0104E60022F3
:1003AB001204E7C3EA64809480400B7F2B1204C0D5
:1003BB008A168B17800E7F2D1204C0C3E49BF51792
:1003CB00E49AF516AA15EAD39400400D120456AC24
:0903DB0016AD171204AC1A80EDF6
:0103E40022F6
:0403E5008A218B22BC
:1003E9001204E7AA23EAD3940040297F1012045883
:1003F900AC21AD22CFCDCFCECCCE12012CEF540FF4
:10040900FEC3940AEE5004243080022437FF1204FC
:04041900C01A80D1B4
:01041D0022BC
:04041E008A268B2778
:100422001204E7AA28EAD394004028EA24FFFDE454
:1004320034FFFC7F027E00120462AC26AD27CFCDD2
:10044200CFCECCCE12012CEF54012430FF1204C0C7
:030452001A80D23B
:010455002284
:09055A000718130B100C3B3706C7
:05056400C2B5C2B62281
:0603000025F0FDEC3EFCBF
:060306008C088D09AB0715
:10030C00D2B5E4FD74017E00A805088005C333CE88
:10031C0033CED8F9FFEBF582EF558224FF92B4D29D
:10032C00B6C2B60DBD08DDE4FD74017E00A805085B
:10033C008005C333CE33CED8F9FFE5085EFEE50960
:10034C005F4E24FF92B4D2B6C2B60DBD08DBC2B567
:01035C00227E
:02035D00AD07EA
:10035F00E4F9430501D2B5FB74017E00A8030880C0
:10036F0005C333CE33CED8F9FFEDF582EF55822496
:10037F00FF92B4C2B6D2B60BBB08DDE4FBD2B6C255
:10038F00B630B40D7401A803088002C333D8FC4201
:0B039F00010BBB08E8C2B5C2B4AF01FF
:0103AA002230
:10000300E4FDFC7F8E120306E51875F00A8475F093
:1000130010A4FFAEF0E51875F00A84EF7F8C12038D
:1000230000E51975F00A8475F010A4FFAEF0E51928
:1000330075F00A847C00EF7F88120300E51A75F0DF
:100043000A8475F010A4FFAEF0E51A75F00A847CFB
:1000530000EF25F0FDEC3EFC7F86120306E51B75E1
:10006300F00A8475F010A4FFAEF0E51B75F00A8466
:100073007C00EF25F0FDEC3EFC7F84120306E51CBB
:1000830075F00A8475F010A4FFAEF0E51C75F00A54
:10009300847C00EF25F0FDEC3EFC7F82120306E535
:1000A3001D75F00A8475F010A4FFAEF0E51D75F020
:1000B3000A847C00EF25F0FDEC3EFC7F80120306F2
:1000C300E51E75F00A8475F010A4FFAEF0E51E7509
:1000D300F00A847C00EF25F0FDEC3EFC7F8A1203DE
:0A00E300067D807C007F8E0203067C
:10028F007F8C12035DEF540FFE75F00AA42EF51844
:10029F007F8812035DEF540FFE75F00AA42EF51937
:1002AF007F8612035DEF540FFE75F00AA42EF51A28
:1002BF007F8412035DEF540FFE75F00AA42EF51B19
:1002CF007F8212035DEF540FFE75F00AA42EF51C0A
:1002DF007F8012035DEF540FFE75F00AA42EF51DFB
:1002EF007F8A12035DEF540FFE75F00AA42EF51EE0
:0102FF0022DC
:10051100EF4E600F7D027CEFDCFEDDFCEF1F70F023
:030521001E80ED4C
:0105240022B4
:0300000002018179
:0C018100787FE4F6D8FD7581280201C8E3
:1000ED00BB010CE58229F582E5833AF583E02250C8
:1000FD0006E92582F8E622BBFE06E92582F8E22212
:0D010D00E58229F582E5833AF583E493222B
:10011A00EF8DF0A4A8F0CF8CF0A428CE8DF0A42EF9
:02012A00FE22B3
:10012C00BC000BBE0029EF8DF084FFADF022E4CCB7
:10013C00F875F008EF2FFFEE33FEEC33FCEE9DEC80
:10014C00984005FCEE9DFE0FD5F0E9E4CEFD22EDC6
:10015C00F8F5F0EE8420D21CFEADF075F008EF2F10
:10016C00FFED33FD4007985006D5F0F222C398FD01
:05017C000FD5F0EA229E
:10018D0002020DE493A3F8E493A34003F68001F279
:10019D0008DFF48029E493A3F85407240CC8C33373
:1001AD00C4540F4420C8834004F456800146F6DF42
:1001BD00E4800B010204081020408090055AE47E73
:1001CD00019360BCA3FF543F30E509541FFEE49337
:1001DD00A360010ECF54C025E060A840B8E493A3FE
:1001ED00FAE493A3F8E493A3C8C582C8CAC583CA29
:1001FD00F0A3C8C582C8CAC583CADFE9DEE780BEE1
:010563000097
:00000001FF
